{
  "contractName": "PokeCatcher",
  "abi": [
    {
      "inputs": [],
      "stateMutability": "nonpayable",
      "type": "constructor"
    },
    {
      "inputs": [
        {
          "internalType": "string",
          "name": "",
          "type": "string"
        }
      ],
      "name": "ownership",
      "outputs": [
        {
          "internalType": "address",
          "name": "owner",
          "type": "address"
        },
        {
          "internalType": "bool",
          "name": "owned",
          "type": "bool"
        }
      ],
      "stateMutability": "view",
      "type": "function",
      "constant": true
    },
    {
      "inputs": [
        {
          "internalType": "string",
          "name": "pokemonName",
          "type": "string"
        }
      ],
      "name": "capture",
      "outputs": [
        {
          "internalType": "string",
          "name": "",
          "type": "string"
        }
      ],
      "stateMutability": "nonpayable",
      "type": "function"
    },
    {
      "inputs": [
        {
          "internalType": "string",
          "name": "pokemonName",
          "type": "string"
        }
      ],
      "name": "isOwned",
      "outputs": [
        {
          "internalType": "bool",
          "name": "",
          "type": "bool"
        }
      ],
      "stateMutability": "view",
      "type": "function",
      "constant": true
    },
    {
      "inputs": [
        {
          "internalType": "string",
          "name": "pokemonName",
          "type": "string"
        }
      ],
      "name": "getOwner",
      "outputs": [
        {
          "internalType": "address",
          "name": "",
          "type": "address"
        }
      ],
      "stateMutability": "view",
      "type": "function",
      "constant": true
    }
  ],
  "bytecode": "0x608060405234801561001057600080fd5b5061079b806100206000396000f3fe608060405234801561001057600080fd5b506004361061004c5760003560e01c806302273f67146100515780634aaf4a12146101855780636cbb6bc01461026a578063bc055ae514610358575b600080fd5b61010a6004803603602081101561006757600080fd5b810190808035906020019064010000000081111561008457600080fd5b82018360208201111561009657600080fd5b803590602001918460018302840111640100000000831117156100b857600080fd5b91908080601f016020809104026020016040519081016040528093929190818152602001838380828437600081840152601f19601f820116905080830192505050505050509192919290505050610429565b6040518080602001828103825283818151815260200191508051906020019080838360005b8381101561014a57808201518184015260208101905061012f565b50505050905090810190601f1680156101775780820380516001836020036101000a031916815260200191505b509250505060405180910390f35b61023e6004803603602081101561019b57600080fd5b81019080803590602001906401000000008111156101b857600080fd5b8201836020820111156101ca57600080fd5b803590602001918460018302840111640100000000831117156101ec57600080fd5b91908080601f016020809104026020016040519081016040528093929190818152602001838380828437600081840152601f19601f8201169050808301925050505050505091929192905050506105e7565b604051808273ffffffffffffffffffffffffffffffffffffffff16815260200191505060405180910390f35b6103236004803603602081101561028057600080fd5b810190808035906020019064010000000081111561029d57600080fd5b8201836020820111156102af57600080fd5b803590602001918460018302840111640100000000831117156102d157600080fd5b91908080601f016020809104026020016040519081016040528093929190818152602001838380828437600081840152601f19601f82011690508083019250505050505050919291929050505061067c565b604051808373ffffffffffffffffffffffffffffffffffffffff16815260200182151581526020019250505060405180910390f35b6104116004803603602081101561036e57600080fd5b810190808035906020019064010000000081111561038b57600080fd5b82018360208201111561039d57600080fd5b803590602001918460018302840111640100000000831117156103bf57600080fd5b91908080601f016020809104026020016040519081016040528093929190818152602001838380828437600081840152601f19601f8201169050808301925050505050505091929192905050506106e3565b60405180821515815260200191505060405180910390f35b60606000826040518082805190602001908083835b60208310610461578051825260208201915060208101905060208303925061043e565b6001836020036101000a038019825116818451168082178552505050505050905001915050908152602001604051809103902060000160149054906101000a900460ff16156104af57600080fd5b336000836040518082805190602001908083835b602083106104e657805182526020820191506020810190506020830392506104c3565b6001836020036101000a038019825116818451168082178552505050505050905001915050908152602001604051809103902060000160006101000a81548173ffffffffffffffffffffffffffffffffffffffff021916908373ffffffffffffffffffffffffffffffffffffffff16021790555060016000836040518082805190602001908083835b60208310610592578051825260208201915060208101905060208303925061056f565b6001836020036101000a038019825116818451168082178552505050505050905001915050908152602001604051809103902060000160146101000a81548160ff021916908315150217905550819050919050565b600080826040518082805190602001908083835b6020831061061e57805182526020820191506020810190506020830392506105fb565b6001836020036101000a038019825116818451168082178552505050505050905001915050908152602001604051809103902060000160009054906101000a900473ffffffffffffffffffffffffffffffffffffffff169050919050565b6000818051602081018201805184825260208301602085012081835280955050505050506000915090508060000160009054906101000a900473ffffffffffffffffffffffffffffffffffffffff16908060000160149054906101000a900460ff16905082565b600080826040518082805190602001908083835b6020831061071a57805182526020820191506020810190506020830392506106f7565b6001836020036101000a038019825116818451168082178552505050505050905001915050908152602001604051809103902060000160149054906101000a900460ff16905091905056fea264697066735822122075beb2006d11230b23c077659c8673b8db0dea2454217153b5d1a048a6e8b9dd64736f6c634300060c0033",
  "immutableReferences": {},
  "source": "// SPDX-License-Identifier: MIT\npragma solidity 0.6.12;\n\ncontract PokeCatcher {\n  mapping(string => Owned) public ownership;\n  //Variables\n  struct Owned {\n    address owner;\n    bool owned;\n  }\n   //constructor\n  constructor() public {}\n //metodos\n /* function <nombre> (<parametros>) <visibilidad> <tipo de retorno> */\n\n //capturar\n  function capture(string memory pokemonName) public returns (string memory) {\n    require(!ownership[pokemonName].owned); \n\n    ownership[pokemonName].owner = msg.sender;\n    ownership[pokemonName].owned = true;\n\n    return pokemonName;\n  }\n   //Verificar si ya ha sido capturado\n  function isOwned(string memory pokemonName) public view returns (bool) {\n    return ownership[pokemonName].owned;\n  }\n  //Obtener Dueño\n  function getOwner(string memory pokemonName) public view returns (address) {\n    return ownership[pokemonName].owner;\n  }\n}",
  "sourcePath": "C:/Users/hp/Desktop/Prueba/truffle-api/contracts/Migrations.sol",
  "compiler": {
    "name": "solc",
    "version": "0.6.12+commit.27d51765.Emscripten.clang"
  },
  "schemaVersion": "3.2.3",
  "updatedAt": "2020-08-20T12:57:19.354Z",
  "networkType": "ethereum",
  "devdoc": {
    "kind": "dev",
    "methods": {},
    "version": 1
  },
  "userdoc": {
    "kind": "user",
    "methods": {},
    "version": 1
  }
}